:020000040000FA
:1000000080311228FF3FFF3F7E1480310B1F1028E4
:100010002100921C10282000921C10288631932663
:100020007E10090080311428CA3084008630850093
:100030005F3086000030870009308631DB26803152
:10004000F901FA01FB01FC01FD01203084000030C0
:10005000850032308631E1267E1020008431002C6C
:1000600000340034023400340A34003416340034CE
:10007000283400343E340034593400347A340034A7
:100080009F340034C9340034F73400342B34013445
:1000900063340134A1340134E334013429340234AB
:1000A00074340234C43402341934033471340334E4
:1000B000CF340334303404349634043401340534FA
:1000C0006F340534E234053458340634D3340634FE
:1000D00052340734D43407345A340834E4340834FE
:1000E0007134093402340A3496340A342E340B3411
:1000F000C9340B3467340C3408340D34AC340D344B
:1001000053340E34FD340E34A9340F3458341034C3
:1001100009341134BD341134723412342A34133496
:10012000E4341334A03414345D3415341D341634DF
:10013000DD3416349F3417346334183427341934BB
:10014000ED341934B4341A347B341B3443341C3446
:100150000C341D34D5341D349F341E3469341F349F
:1001600032342034FC342034C63421348F342234E9
:100170005834233421342434E9342434B03425343D
:10018000763426343B342734FF342734C2342834C1
:100190008334293443342A3402342B34BE342B3490
:1001A00079342C3432342D34E9342D349E342E34C9
:1001B00050342F3400343034AE3430345934313488
:1001C00001343234A634323449343334E8343334ED
:1001D000853434341E343534B4343534473436340D
:1001E000D634363462343734E93437346E34383404
:1001F000EE3438346B343934E334393458343A34E7
:10020000C9343A3435343B349D343B3401343C34C6
:1002100060343C34BC343C3412343D3464343D34BA
:10022000B2343D34FB343D343F343E347F343E34CD
:10023000B9343E34EF343E3421343F344D343F340E
:1002400075343F3497343F34B5343F34CE343F3483
:10025000E2343F34F0343F34FA343F34FF343F3437
:10026000FF343F34FA343F34F0343F34E2343F3427
:10027000CE343F34B5343F3497343F3475343F3453
:100280004D343F3421343F34EF343E34B9343E34BE
:100290007F343E343F343E34FB343D34B2343D345D
:1002A00064343D3412343D34BC343C3460343C342A
:1002B00001343C349D343B3435343B34C9343A3416
:1002C00058343A34E33439346B343934EE34383416
:1002D0006E343834E934373462343734D634363413
:1002E00047343634B43435341E34353485343434FC
:1002F000E834333449343334A634323401343234BC
:1003000059343134AE3430340034303450342F3436
:100310009E342E34E9342D3432342D3479342C3457
:10032000BE342B3402342B3443342A3483342934FE
:10033000C2342834FF3427343B342734763426340F
:10034000B0342534E934243421342434583423346B
:100350008F342234C6342134FC34203432342034F7
:1003600069341F349F341E34D5341D340C341D348D
:1003700043341C347B341B34B4341A34ED34193414
:1003800027341934633418349F341734DD34163469
:100390001D3416345D341534A0341434E43413346D
:1003A0002A34133472341234BD3411340934113404
:1003B00058341034A9340F34FD340E3453340E3411
:1003C000AC340D3408340D3467340C34C9340B3478
:1003D0002E340B3496340A3402340A34713409341E
:1003E000E43408345A340834D434073452340734EB
:1003F000D334063458340634E23405346F340534CB
:10040000013405349634043430340434CF340334A6
:100410007134033419340334C43402347434023470
:1004200029340234E3340134A13401346334013417
:100430002B340134F7340034C93400349F34003491
:100440007A340034593400343E34003428340034D3
:10045000163400340A3400340234003400340034DA
:10046000003406340C34123418341D34223426344B
:100470002B342F34333437343A343E34413444341B
:1004800047344A344D344F3451345434563458344C
:100490005A345C345E345F346134623464346534BD
:1004A0006634683469346A346B346C346D346E3459
:1004B0006F346F3470347134723472347334743412
:1004C00074347534753476347634773477347734DD
:1004D0007834783479347934793479347A347A34B4
:1004E0007A347A347B347B347B347B347B347C3495
:1004F0007C347C347C347C347C347D347D347D3479
:100500007D347D347D347D347D347D347D347E3462
:100510007E347E347E347E347E347E347E347E344B
:100520007E347E347E347E347E347E347E347E343B
:100530007E347E347E347E347F347F347F347F3427
:100540007F347F347F347F347F347F347F347F3413
:100550007F347F347F347F347F347F347F347F3403
:100560007F347F347F347F347F347F347F347F34F3
:100570007F347F347F347F347F347F347F347F34E3
:100580007F347F347F347F347F347F347F347F34D3
:100590007F347F347F347F347F347F347F347F34C3
:1005A0007F347F347F347F347F347F347F347F34B3
:1005B0007F347F347F347F347F347F347F347F34A3
:1005C0007F347F347F347F347F347F347F347F3493
:1005D0007F347F347F347F347F347F347F347F3483
:1005E0007F347F347F347F347F347F347F347F3473
:1005F0007F347F347F347F347F347F347F347F3463
:100600007F347F347F347F347F347F347F347F3452
:100610007F347F347F347F347F347F347F347F3442
:100620007F347F347F347F347F347F347F347F3432
:100630007F347F347F347F347F347F347F347F3422
:100640007F347F347F347F347F347F347F347F3412
:100650007F347F347F347F347F347F347F34803401
:10066000FF30F40074082000D0075008031D432B0E
:100670007C0A0319432B0130F4007408FC0734088A
:10068000F4007408D0004F08F4007408CD074E0839
:10069000F400F5017408BE077508BF3D3F08F4007B
:1006A0007408F8004D087807F4007408FB007C0813
:1006B000303E840082300318013E85000008F400BB
:1006C0007408F8007B087807F4007408FD007D08C2
:1006D000F400F501F435F50D3030740784008030F6
:1006E000753D8500003FC000013FC1007B08F4005C
:1006F000F501F435F50D3030740784008030753D18
:100700008500003FF600013FF70040087607AC0087
:100710004108773DAD00AE01AF010630AF36AE0CFB
:10072000AD0CAC0C890B8E2BFF30F4007408CA079B
:100730004A08031DA62B7A0A0319A62B0130F400E0
:100740007408FA073408F4007408CA004908F40071
:100750007408C7074808F400F5017408BA0775085B
:10076000BB3D3B08F4007408F80047087807F40024
:100770007408F9007A08303E840082300318013E84
:1007800085000008F4007408F80079087807F40080
:100790007408CC004C08F400F501F435F50D303048
:1007A000740784008030753D8500003FBC00013F28
:1007B000BD007908F400F501F435F50D303074070B
:1007C00084008030753D8500003FF600013FF70052
:1007D0003C087607A8003D08773DA900AA01AB01B7
:1007E0000630AB36AA0CA90CA80C890BF12B2808F3
:1007F0002C07F00029082D3DF10086316A260800FB
:100800008631352684318B170B1764302000B400F5
:100810000030B500DD010030D5000030D4000030DC
:10082000D3000030D2008531D12584310030200042
:100830000E180130C6005E0846060319452C3430F8
:100840002000DC00F130890B232CDC0B232C003240
:10085000003020000E180130C6005E08460603195D
:10086000462C5D08031D462CDD01DD0A4508031DED
:10087000462CC501C50AC4010030A7000030A600FF
:100880000030A5000030A400462CDD014608DC0045
:100890005C08DE00300831040319522C0130B0022C
:1008A0000030B13B3108D3003008D2008631192620
:1008B0008431003200320032003220004503031D33
:1008C000892C0030D5000030D4000030D300FA303D
:1008D000D2002708D9002608D8002508D700240808
:1008E000D60085312B25843120005508540453044B
:1008F0005204031D832C8531A5258431013020004D
:10090000DC005C08C40703304402031C8D2CC501C5
:100910008D2CF0300032890B8A2C01302000A40786
:100920000030A53D0030A63D0030A73D162CFD341B
:100930000C341C342D343F34523466347B349234BE
:10094000AA34C334DE34FA34183438345A347E349A
:10095000A434CC34F634233453348634BB34F434E6
:1009600030347034B334FB3447349734EC34463489
:10097000A6340B347634E7346034DF346634F5342F
:100980008D342D34D7348C344B341534EB34CE3491
:10099000BF34BE34CC34EA3419345A34AE3417344C
:1009A00095342934D6349C347D347B349734D43414
:1009B0003234B4345C342D3429345234AC343834C9
:1009C000FA34003401340134013401340134013487
:1009D000013401340134013401340134023402346D
:1009E0000234023402340234023403340334033454
:1009F0000334033404340434043404340534053437
:100A00000534063406340734073407340834083410
:100A1000093409340A340B340B340C340D340E34DD
:100A20000E340F3410341134123413341534163498
:100A3000173419341A341C341D341F342134233430
:100A4000253427342A342C342F3432343534383496
:100A50003B343F34423420005508540453045204BC
:100A60000319652DDB01DB0AD51B422D0130D23580
:100A7000D30DD40DD50D890B372D0130DA005A086E
:100A8000DB07342D55085902031D502D5408580218
:100A9000031D502D53085702031D502D52085602B6
:100AA000031C5A2D5208D6025308D73B5408D83B92
:100AB0005508D93B0130D536D40CD30CD20C890B58
:100AC0005B2D0130DB02031D422D5908D50058086B
:100AD000D4005708D3005608D20008002000D400E4
:100AE0005408031D8C2D5208E13E84008430031805
:100AF000013E85000008D3005308CF005208973EFE
:100B0000840084300318013E85000008D300530898
:100B1000CE00FC01D00108005208E13E8400843080
:100B20000318013E85000008D3005308C90052088D
:100B3000973E840084300318013E85000008D300EE
:100B40005308C800FA01CA01080001302000B607A6
:100B50000030B73D6708D5005508C207083042028B
:100B6000031CB92D0830D5005508C200E701E70382
:100B7000BF2D4208031DBF2DC201E701E70A42084D
:100B80005F3E860087010108D5005508D20036086F
:100B9000013985316E25FF302000B0000330B100EF
:100BA000080020005508540453045204031DEE2D80
:100BB00021009D149D18DA2D1C082000D70021006B
:100BC0001B082000D600560857040319D82D5608D4
:100BD000A0005708A100A201A30108005508A30026
:100BE0005408A2005308A1005208A00008002200E7
:100BF0008C018E01373021008C0023308E002300C1
:100C00008E018C0124008C0101308E00210095138F
:100C100025008C018E013D002408E0390838A4002D
:100C20002308E0390938A3002208E0390C38A20073
:100C3000080020005308D5005208D400D536D40C43
:100C4000D536D40C540825009100200052080339F1
:100C5000D4000430D435890B2A2E25001308CF394F
:100C6000200054042500930008008531F7258631C3
:100C70008631B52686318631ED2686318631AA2623
:100C800086318631C02686318631502686318631BE
:100C90008026863186319F2686318631D32608000C
:100CA0002D009701013098004030990040309A00A3
:100CB00040309B0040309C0014309D009E010F305E
:100CC0009F00950196019301940191019201883052
:100CD000970008007108F3007008F200F336F20C78
:100CE000F336F20C72082C00980070080339F200F9
:100CF0000530F235FF3E031D792E7235970008004E
:100D0000FF302800960095012000921021009214D7
:100D100030302000D2000330D3008631E7260C307B
:100D200028009700080020009210320833040319AD
:100D3000080033088A0032080A0086310800803033
:100D40002C0099007F309800C0309700CF302500EC
:100D50009E0508003C30250093007F3091009201F1
:100D60001E08FC3902389E000800703021009900EE
:100D70009A0198012200960121001A1B0800BC2E3E
:100D8000FF3028009D009C01200012110430280033
:100D90009E00080038343A343C343F344134443403
:100DA000463448340134FF3020009B009A019110F2
:100DB00004309C000800FE0012001E00FE0BDC2E1A
:100DC0000034640080010131890BE22E00342000E0
:100DD0005308B3005208B2000800163021009700F3
:100DE0000800FF3FFF3FFF3FFF3FFF3FFF3FFF3F49
:100DF000FF3FFF3FFF3FFF3FFF3FFF3FFF3FFF3F03
:100E0000FF3FFF3FFF3FFF3FFF3FFF3FFF3FFF3FF2
:100E1000FF3FFF3FFF3FFF3FFF3FFF3FFF3FFF3FE2
:100E2000FF3FFF3FFF3FFF3FFF3FFF3FFF3FFF3FD2
:020000040001F9
:04000E00A43FFF1FED
:08000000FF3FFF3FFF3FFF3F00
:00000001FF
