:020000040000FA
:1000000080311228003008007E1480310B1F102828
:100010002100911C10282000911C10288C315124A3
:100020007E10090080311428DE3084008C30850079
:100030005A308600003087000030FF0011308C31CC
:1000400075248031C43084008630850020308600DD
:10005000013087000030FF003F308C317524803143
:1000600090308400233085006030FE000030FF00B7
:100070008C3169248031F801F901FA01FB01FC019E
:10008000FD0141308400003085001930FE00003051
:10009000FF008C3169248031A0308400003085005D
:1000A0001830FE000030FF008C3169247E102000E3
:1000B0008131912920002E0886002F0887004931C0
:1000C0000108803AB0002E0886002F0887004E31C4
:1000D0000103FF3A803AB002031899282E088600DF
:1000E0002F0887004A310130810741310318810A06
:1000F0002E0886002F0887004A31403FB000413F5C
:10010000B10000303102413003193002031CDB28FA
:100110002E0886002F0887004A310030C03FC13FBB
:100120002E0886002F088700010886313B26803183
:10013000DB282E0886002F08870049310108B0000F
:10014000B101B01BB1032E0886002F0887004E3185
:100150003108803A803C031DAF28300801020318A3
:10016000D22820002E08023EB00000302F3DB10002
:100170003008860031088700023081002E08860092
:100180002F0887004A310030C03FC13F2E0886004B
:100190002F0887000108B0003008A0008B31ED2344
:1001A0008031DB2820002E0886002F0887004A3186
:1001B0000030C03FC13F20002E0886002F08870076
:1001C0004C310130810741310318810A2E08860025
:1001D0002F0887004C311600403AB0001600B004DA
:1001E000031D08002E0886002F0887004C310030C0
:1001F000C03FC13F2F08A1002E08A000813101217E
:1002000008008B1F4B298B13200020088600210833
:1002100087004531403FA200413FA300423FA40078
:10022000433FA5000430A536A40CA30CA20C890BF7
:100230001329200886002108870045312208810201
:1002400041312308813B41312408813B413125085C
:10025000813B7D3120088600210887004331403FE3
:10026000A200413FA3002208A4002308A500A60184
:10027000A70120088600210887004531240881074E
:1002800041312508813D41312608813D4131270812
:10029000813D8B1708002000200886002108870078
:1002A0004531403FA200413FA300423FA400433FED
:1002B000A5000430A536A40CA30CA20C890B5A2966
:1002C000200886002108870045312208810241313B
:1002D0002308813B41312408813B41312508813B82
:1002E0007D3120088600210887004331403FA2006D
:1002F000413FA3002208A4002308A500A601A701EE
:1003000020088600210887004531240881074131F3
:100310002508813D41312608813D41312708813D35
:1003200008008D31132581318B170B178D31B425C2
:10033000813100308731862781312000BE003E08A0
:10034000C10001308731862781312000BE003E0880
:10035000C20002308731862781312000BE003E086E
:10036000C30003308731862781312000BE003E085C
:10037000C40004308731862781312000BE003E084A
:10038000C500FF308C311C2481312000BF01C00129
:1003900020003F08413E8600870101088C311C2463
:1003A000813120003F08413E860087010108BE00E0
:1003B0003F08B03E860087013E0881003F08413E6D
:1003C000860087013F08B03E8400850100080106D1
:1003D000031D0A2A3F35A03E8600870101308107B0
:1003E00041310318810AE830A0000330A1003F35F5
:1003F000A03E86008701403FA200413FA300873115
:1004000032278131200020082104031D0A2A8D3162
:100410007325813101302000BF070030C03D400806
:10042000803ABE0080303E02031D182A05303F028C
:1004300003189629C8292000200886002108870073
:100440004531403FA200413FA300423FA400433F4B
:10045000A5000430A536A40CA30CA20C890B2A2AF3
:1004600020088600210887004331403FA600413F15
:10047000A7002608A8002708A900AA01AB012208A6
:10048000A8022308A93B2408AA3B2508AB3B2B085C
:10049000AF002A08AE002908AD002808AC002C08DF
:1004A000A2002D08A3002E08A4002F08A5002008F4
:1004B0008600210887004F31010A622AA537A40C63
:1004C000A30CA20C890B5E2A2508AF002408AE00FD
:1004D0002308AD002208AC00AF1B832A2F08031DA0
:1004E0007B2A2E08031D7B2A2D08031D7B2A8030C2
:1004F0002C02031C832A0030AF000030AE00003015
:10050000AD007F30AC00AF1F972A80302C02FF3047
:100510002D3BFF302E3BFF302F3B0318972AFF3037
:10052000AF00FF30AE00FF30AD008030AC002008DF
:10053000093EA2000030213DA300220886002308C6
:1005400087002C088100080021009D18A42A1C089F
:10055000F7001B08F6002000571808007C08031D50
:10056000BE2A182B67088A0066080A008231CF2A43
:1005700065088A0064080A008231CF2A7C080139A4
:10058000F400F5017508003A0319C72ACF2A740848
:10059000003A0319B22A013A0319B82ACF2A0930BE
:1005A000F4007408F0007D088C31CD248231253EA2
:1005B00086000130870001087C060319152B7C1C7E
:1005C000FF2A0030F4000430F50076087402F600CB
:1005D0007708753BF700760820004B02F00077089B
:1005E0004C3BF1008C318124823170082000CD0712
:1005F0007108CE3D7708CC007608CB00112B760829
:1006000020004902F00077084A3BF1008C31812438
:1006100070082000CD077108CE3D7708CA00760823
:10062000C9007608CF077708D03D0130FC020800EA
:100630007608CF077708D03D76084902F0007708A2
:100640004A3BF1008C31812470082000CD077108ED
:10065000CE3D571408002000A7000B0E890C890C12
:100660000139A2000B0D0B0D01392205031D3A2B98
:10067000FE300800A60121001D082000A20022086B
:10068000A30021001E082000A2002208A4002100CF
:100690001F082000A2002208A5008C3124248331E9
:1006A000200027088D315F25833120002708860030
:1006B000013087000108A2002208FD0027088600FB
:1006C000013087000130453FFC00CF01D0015710B9
:1006D000CD01CE01A430A0000230A1008C31042451
:1006E000833120006A088B31FF2383318B31F22361
:1006F00083312000D710111F57187F2B7B2B11132C
:10070000571C7B2B8B31F5238331200023082100DC
:100710009D002000240821009E00200025082100C3
:100720009F002000D71C982BFA30A2002208A600B8
:100730002608080020002E0886002F0887004A316E
:10074000403FB000413FB100003031020930031991
:1007500030020318B32B2F08A9002E08A8008731F8
:1007600003278331BA2B2F08A1002E08A000813166
:100770000121833120002E0886002F0887004A318E
:100780000130810741310318810A2E0886002F08A5
:1007900087004A31403FB000413FB1000030310294
:1007A000103003193002031C08002E0886002F08A1
:1007B00087004531403FB000413FB100423FB200A9
:1007C000433FB3000430B336B20CB10CB00C890B0C
:1007D000E32B2E0886002F08870043313008C03FE6
:1007E0003108C13F2E08023EB00000302F3DB1005D
:1007F0003008860031088700013081002E0886000D
:100800002F0887004A310030C03FC13F0800200058
:10081000B8003808B400B501B40EB50EF030B50517
:1008200034080F39B504F030B4059030B6002330E9
:10083000B70034083607B9003508373DBA00390823
:1008400086003A088700413101088D3188258431BE
:10085000003A031908002000390886003A0887008A
:10086000413101088B31F0238431003A031908002B
:1008700020003A08AD003908AC008D314B25843199
:1008800020003A08A1003908A00082311B228431DF
:100890002000390886003A088700423103300102FF
:1008A000031C5A2C390886003A0887000108863153
:1008B0003B26843120003A08AF003908AE003908E1
:1008C00086003A088700423101355A3E860087018A
:1008D000413F8A00403F0A00843108002000AE00FA
:1008E0004E08A9004D08A800A936A80CA936A80CE6
:1008F0004D082807AA004E08293DAB006A08A80049
:100900002808AF005008AD004F08AC00B101310815
:10091000003E840090300318013E85000008A800C6
:100920002808EA07C8306A0203189A2CC830A800C1
:100930002808EA070530A8002808B0002E088331EF
:100940002B238431003A0319AD2C01302000B00272
:100950003008031D9E2CFC30080020004E082B029E
:10096000031DB42C4D082A020318C22C4E08AB00FC
:100970004D08AA006A08A8002808AF005008AD007A
:100980004F08AC000130A8002808B107053031023B
:10099000031C872C2F08A8002808EA002D08D00087
:1009A0002C08CF000030080020002E0886002F08F9
:1009B00087004A31403FB000413FB1000030310272
:1009C000643003193002031CF92C2E0886002F080E
:1009D0008700010886313B26843120002E088600DE
:1009E0002F0887000108B0003008A0008B31ED23EC
:1009F00008002E0886002F08870049310108803A38
:100A0000B0002E0886002F0887004E312E08840083
:100A10002F0885000E3100360102803AB00203181B
:100A200008002E08023EB00000302F3DB100300813
:100A3000860031088700013081002E0886002F08CB
:100A400087004A310030C03FC13F2E0886002F0882
:100A500087004C31FF30C03FFB30C13F2E0886007D
:100A60002F0887000108B0003008A0008B31ED236B
:100A70000800003400340034003400340034003402
:100A80000034003400340034003400340034323494
:100A900001340134043400340034003400340034B0
:100AA0000034003400340034003400340034323474
:100AB0000134023403340034003400340034003490
:100AC0000034003400340034003400340034323454
:100AD0000134033402340034003400340034003470
:100AE0000034003400340034003400340034323434
:100AF0000134043401340034003400340034003450
:100B00000034003400340034003400340034323413
:100B10000134053406340034003400340034003429
:100B200000340034003400340034003400343234F3
:100B300001342000B5000530B2003208B400350899
:100B40008C318F248531003A031DB02D0030080010
:100B500001302000B4023408031DB02DFC30080021
:100B60002000350883312B238531003A031DA82D41
:100B700020003508063E860001308700403F4F02C6
:100B8000A000413F503BA1008C319E2485312000C4
:100B90003508053E8600013087000108B200B30128
:100BA000B235B30DB235B30D21083302031DDA2D72
:100BB000200832020318E52D35088C312D248531AB
:100BC0002000350884316E24080035088C31362425
:100BD0008531A62D2000280886002908870042318B
:100BE00001080319282E28088600290887004331A8
:100BF000403FAA00413FAB00AB36AA0CAB36AA0C73
:100C0000280886002908870043312A0881024131DB
:100C10002B08813B7F312808860029088700413155
:100C200001088D31CD2520002408AA002508AB003D
:100C3000AB36AA0CAB36AA0C280886002908870018
:100C400043312A08810741312B08813D7F3108005B
:100C50002808860029088700413101088D31CD25FB
:100C60002000280886002908870043312408C03F57
:100C70002508C13F08002000A4002408A000A1010D
:100C8000A00EA10EF030A10520080F39A104F0300C
:100C9000A0059030A2002330A30020082207A50061
:100CA0002108233DA600250886002608870042313A
:100CB00081012508053EA0000030263DA100200846
:100CC0008600210887000030C03FC13FC23FC33FBC
:100CD00025088600260887004A310030C03FC13F02
:100CE00025088600260887004C310030C03FC13FF0
:100CF0002508860026088700413101088B31EE2344
:100D000008002000B8000930B6003608A0003808F6
:100D10008C31EF248631203E2000B7003708BA001E
:100D20003A088531992586312000B6003608B90089
:100D3000B32E3A088C318F248631003A0319C12E24
:100D400020003A088D31E725863120003A088C31A1
:100D50003F24863120003808B6003608A0008B31C9
:100D6000EF238631C12E3908003A0319992EFD3A36
:100D70000319C12E033A0319C12E013A0319C12EDA
:100D8000C12E20003908080000343E340E341E34D1
:100D90000F34203400340034003401345E340E3417
:100DA0003E340F34203400340034003402347E34B6
:100DB0000E345E340F3420340034003400340334F5
:100DC0009E340E347E340F3420340034003400342A
:100DD0000434BE340E349E340F34203400340034D6
:100DE00000340534DE340E34BE340F342034003485
:100DF0000034003406341E340E34FE340E342034F5
:100E000000340034003420002808860029088700B8
:100E1000413101088D31CD25873120002408AA00F9
:100E20002508AB00AC01AD01280886002908870021
:100E300045312A08C03F2B08C13F2C08C23F2D086E
:100E4000C33F2808860029088700453104308135D2
:100E50004131810D4131810D4131810D7D31890B50
:100E6000272F080020002008210403195A2FA5016C
:100E7000A50AA11B452F0130A035A10D890B3C2FE0
:100E80000130A4002408A507392F21082302031DDF
:100E90004B2F20082202031C512F2008A2022108F8
:100EA000A33B0130A136A00C890B522F0130A502C3
:100EB000031D452F2308A1002208A00008002000E0
:100EC0002008860021088700423102300106031DF8
:100ED000080020088600210887004A310130810778
:100EE00041310318810A20088600210887004A3111
:100EF00016000104031D0800200886002108870051
:100F00004A31FF30C03FFF30C13F08002000A4003D
:100F1000063024020318AA2F2408A000A101A00E65
:100F2000A10EF030A10520080F39A104F030A00572
:100F30009230A2002330A300200822078600210857
:100F4000233D870002300106031DA82F0130080051
:100F500000300800003008002000A8012808A40084
:100F6000A501A40EA50EF030A50524080F39A5048F
:100F7000F030A4059030A6002330A70024082607EF
:100F8000A0002508273DA10087315F278731013068
:100F90002000A4002408A80706302802031808002F
:100FA000AE2F083023009F0080309D0024309E002B
:100FB0008A309B009C0100302000A0000030A1007E
:100FC0008C311024873100302000A0000030A100B7
:100FD0008C311624873100302000A0000030A100A1
:100FE0008C310A242000D9010800703021009900BA
:100FF0009A0198012200960121001A1B0800FC2F7B
:1017D80008000800080008000130080020001C1557
:1017E800080020001C1108008731AC2708001630BB
:1017F8002100970008002000A00020089B00080096
:1018080020002108F9002008F8000800200021081D
:10181800D2002008D100080020002108D6002008A6
:10182800D500080020002108D4002008D3000800B3
:101838002000A000111E1E2C200823009A0008007A
:10184800FC3020009C0521009D01A0309E009F01D6
:1018580008002000A0002008083E8600013087000C
:10186800011508002000A0002008083E860001306D
:101878008700011108002000A0002008083E86000B
:1018880001308700811408002000A0002008083ECD
:101898008600013087008110080020009110780828
:1018A80079040319080079088A0078080A008C313D
:1018B80008008C31BD248C318F31DE278C318D317D
:1018C80073258C318C312424080064008001013197
:1018D8000130FE020030FF3B7F087E04031900340C
:1018E8006A2CFE0012001E000130FE020030FF3B91
:1018F8007F087E0403190034762CF11F0800700954
:10190800F2007109F300F20A0319F30A7208F000F1
:101918007308F10008002000A000200803199C2C7F
:101928002008083E860001308700010801390800B8
:10193800003008002000A11F08002009A20021098A
:10194800A300A20A0319A30A2208A0002308A100E1
:1019580008002000BC013C08843107248C31013088
:101968002000BB003B08BC0706303C0203180800F7
:10197800AF2C2000A90129088D3138258C31013080
:101988002000A8002808A907073029020318080022
:10199800BF2CF200F301721CD52C7008F1007108FD
:1019A800F3070310F00D0310F20C7208031DCF2C7F
:1019B800730808009A3403345A340034D434043495
:1019C800ED340B34ED340B341E340F343E340E3406
:1019D800EF340B34C8342000A300A201231CF82CD8
:1019E8002008A1002108A2070310A00D0310A30CD2
:1019F8002308031DF22C22080800FF3020009B005A
:101A08009A01911021009114EC302000A0000B30B5
:101A1800A1008C310424043020009C0008008E3181
:101A280001268D318731F5278D318B31FB238D319F
:101A38008D3101258D318731D1278D318C315D2450
:101A480008002000A5000730250203180800093007
:101A5800A4002408A00025088C31EF24283E860025
:101A680001308700011408002000A70027088D31E5
:101A780025258D3109302000A6002608A00027085A
:101A88008C31EF248D31203E8C31482408008B1F87
:101A9800572D8B1320002D08A9002C08A80085318C
:101AA800EA258B17080020002D08A9002C08A8009B
:101AB8008531EA2508002000A000200A86000130B0
:101AC8008700403FE600413FE7002008033E8600CC
:101AD80001308700403FE400413FE5000800203026
:101AE8002000A1002108A2005630A10022082102EE
:101AF800031C080022088C3148248D31093020004D
:101B0800A1002108A207782D2000A5000730250292
:101B180003189C2D0930A4002408A00025088C3146
:101B2800EF24283E860001308700010C01390800A7
:101B3800003008002000BC013C08863181268D3128
:101B4800003A0319A92D0030080001302000BB001D
:101B58003B08BC0707303C02031CA02D01300800DD
:101B68002000D801D80A8D319E258D31003A0319FD
:101B780008008C31AD248D31803102208D31200058
:101B8800BD003D08D8008D3173258D318B31F82388
:101B980008002000A700073027020318E42D0930A9
:101BA800A6002608A00027088C31EF24263E8600D0
:101BB80001308700403F2000A400413FA5000800F5
:101BC800A401A50108002000A0008B1FF72D8B138E
:101BD8002008063E8600013087004F08C03F5008A5
:101BE800C13F8B1708002008063E86000130870099
:101BF8004F08C03F5008C13F080022008C018E01E9
:101C0800203021008C0020308E00203023008E00F0
:101C18008C0124008C018E012100951725008C0170
:101C28008E01373026008C003F308E0014303D0086
:101C3800A400080022008C14210005309D00033008
:101C4800890B242E00008C308400003085000C3075
:101C5800860001308700013000149D000115003214
:101C68000032000021009D140032000022000C14F4
:101C78000010080022000C14210001309D000330E0
:101C8800890B442E00008C308400003085000C3015
:101C98008600013087000D3000169D0001150032C6
:101CA8000032000021009D140032000022000C16B2
:101CB8000012080022000C1621000D309D00033090
:101CC800890B642E00008E308400003085000C30B3
:101CD800860001308700113000149D000115003284
:101CE8000032000021009D140032000022000E1472
:101CF8000010080022000E14210011309D0003304E
:101D0800890B842E00008E308400003085000C3052
:101D1800860001308700153080149D0001150032BF
:101D28000032000021009D140032000022008E14B1
:101D38008010080022008E14210015309D00033009
:101D4800890BA42E00008E308400003085000C30F2
:101D5800860001308700193000159D0001150032FA
:101D68000032000021009D140032000022000E15F0
:101D78000011080022000E15210019309D000330C3
:101D8800890BC42E00008E308400003085000C3092
:101D98008600013087001D3080159D000115003236
:101DA8000032000021009D140032000022008E1530
:101DB8008011080022008E1521001D309D0003307F
:101DC800890BE42E00008C308400003085000C3034
:101DD800860001308700053080149D00011500320F
:101DE8000032000021009D140032000022008C14F3
:101DF8008010080022008C10210005309D0003305F
:101E0800890B042F00008C308400003085000C30D2
:101E1800860001308700013000149D000111003256
:101E28000032000021009D140032000022000C1036
:101E38000010080022000C10210001309D00033022
:101E4800890B242F00008C308400003085000C3072
:101E58008600013087000D3000169D000111003208
:101E68000032000021009D140032000022000C12F4
:101E78000012080022000C1221000D309D000330D2
:101E8800890B442F00008E308400003085000C3010
:101E9800860001308700113000149D0001110032C6
:101EA8000032000021009D140032000022000E10B4
:101EB8000010080022000E10210011309D00033090
:101EC800890B642F00008E308400003085000C30B0
:101ED800860001308700153080149D000111003202
:101EE8000032000021009D140032000022008E10F4
:101EF8008010080022008E10210015309D0003304C
:101F0800890B842F00008E308400003085000C304F
:101F1800860001308700193000159D00011100323C
:101F28000032000021009D140032000022000E1132
:101F38000011080022000E11210019309D00033005
:101F4800890BA42F00008E308400003085000C30EF
:101F58008600013087001D3080159D000111003278
:101F68000032000021009D140032000022008E1172
:101F78008011080022008E1121001D309D000330C1
:101F8800890BC42F00008C308400003085000C3091
:101F9800860001308700053080149D000111003251
:101FA8000032000021009D140032000022008C1035
:101FB8008010080090308600233087003930840074
:101FC8008530850060302000A70027080319F02F0E
:101FD80012001E00A70BEC2F2000A801280886314C
:101FE8003B268F3101302000A7002708A8070630BC
:101FF800280203180800F22F03340D340E34143469
:022008000D3495
:020000040001F9
:04000E00E4FFFFF715
:00000001FF
